:100000000C9462000C941B0A0C94F4090C948A0062
:100010000C948A000C948A000C948A000C948A0038
:100020000C948A000C948A000C948A000C94420A66
:100030000C948A000C948A000C948A000C948A0018
:100040000C94AA090C948A000C948A000C948A00DF
:100050000C948A000C948A000C948A000C948A00F8
:100060000C94E7070C948A0000000000240027008D
:100070002A0000000000250028002B0000000000DE
:1000800023002600290004040404040404040202DA
:100090000202020203030303030301020408102007
:1000A0004080010204081020010204081020000012
:1000B0000008000201000003040700000000000027
:1000C0000000950A11241FBECFEFD8E0DEBFCDBFE0
:1000D00011E0A0E0B1E0E0EFFFE102C005900D9279
:1000E000A637B107D9F722E0A6E7B1E001C01D921B
:1000F000A737B207E1F710E0C2E6D0E004C02197CD
:10010000FE010E94E00DC136D107C9F70E94EC0A3A
:100110000C94F60F0C94000080E008959B01DC0124
:100120001896ED91FC9141E067E109942091F3016B
:10013000260F3327331F21323105FCF4209117029B
:100140002430C9F4662381F0DC0190E080E0E09186
:10015000F3012D91AC014D525E4FE40FF52FF11DCF
:1001600020830196861798F38091F301680F6093BE
:10017000F30180E0089582E0089581E008950895F4
:100180008FEF9FEF08958FEF9FEF08958091CC013F
:1001900090E09195819591090895CF93DF93CB01DC
:1001A000EA01642F0E949600CE01DF91CF9108955D
:1001B000CF93DF931F92CDB7DEB7698361E0CE01A5
:1001C00001960E94960081E090E00F90DF91CF9120
:1001D00008958330E9F038F0873069F0883011F104
:1001E000843079F008958130C9F0823081F484B58B
:1001F0008F7D84BD08958091B0008F778093B0008B
:100200000895809180008F7D8093800008950895E7
:10021000809180008F7780938000089584B58F77D8
:1002200084BD08958091B0008F7D8093B0000895C3
:10023000CF93DF93282F30E0F901E255FF4F8491EF
:10024000F901E656FF4FD491F901EA57FF4FC491E7
:10025000CC23B1F0811119C0EC2FF0E0EE0FFF1F9D
:10026000E458FF4FA591B491EC91ED2381E090E02B
:1002700019F0DF91CF91089580E0DF91CF9108953B
:1002800080E090E0DF91CF9108950E94E900E4CFF3
:100290001F93CF93DF93282F30E0F901E255FF4FF2
:1002A0008491F901E656FF4F1491F901EA57FF4F87
:1002B000C491CC23A9F0D62F81111BC0EC2FF0E004
:1002C000EE0FFF1FEE58FF4FA591B4918FB7F89432
:1002D000D1110AC09C91E12FE095E923EC938FBFE7
:1002E000DF91CF911F910895EC91E12BEC938FBF9B
:1002F000F7CF0E94E900E2CFCF93DF9390E0FC01BB
:10030000E656FF4F24918A579F4FFC018491882322
:10031000A9F090E0880F991FFC01E859FF4FA591C3
:10032000B491FC01EE58FF4FC591D491623049F071
:100330008FB7F894EC91E22BEC938FBFDF91CF91C4
:1003400008959FB7F8943C91822F809583238C93D6
:10035000E881E22BE8839FBFF1CF3FB7F89480910B
:10036000C8019091C901A091CA01B091CB0126B5F5
:10037000A89B05C02F3F19F00196A11DB11D3FBFDD
:10038000BA2FA92F982F8827BC01CD01620F711DAC
:10039000811D911D660F771F881F991F660F771F9C
:1003A000881F991F08950F931F930E94AD016093BA
:1003B000A9017093AA018093AB019093AC01609165
:1003C000A9017091AA018091AB019091AC010091BB
:1003D000A5011091A6012091A7013091A8016454B4
:1003E000784F8F4F9F4F601B710B820B930B0E94B6
:1003F000FB0E20E030E044EB53E40E94530E609388
:10040000BF017093C0018093C1019093C20180919C
:10041000A9019091AA01A091AB01B091AC01809388
:10042000A5019093A601A093A701B093A80183E032
:10043000809381001F910F9108950895DC011A9611
:10044000ED91FC9130E020E00994DC011696ED91ED
:10045000FC9130E020E040E069E10994DC0116966F
:10046000ED91FC9130E020E040E068E109949A01D0
:10047000DC011696ED91FC91462F67E10994EF920D
:10048000FF920F931F93CF93DF931F92CDB7DEB7E9
:100490007C018B01D8016C91673199F06831F0F0E3
:1004A0006A31A0F16E3F51F5F8014181498369E25B
:1004B000C7010E941E020E5F1F4FD8016C91673169
:1004C00069F7F80181818983AE014F5F5F4F61E079
:1004D000C7010E9437020E5F1F4FDCCF653170F0FD
:1004E000F80141814983D7011696ED91FC9130E0E6
:1004F00020E0C70109950E5F1F4FCCCF0F90DF9111
:10050000CF911F910F91FF90EF9008950F5F1F4FB4
:10051000D7011696ED91FC9130E020E040E0C70154
:100520000995B8CF462FDC011696ED91FC9130E08D
:1005300020E066E10994462FDC011696ED91FC91CE
:1005400030E020E065E10994EF92FF920F931F9352
:10055000CF93DF93EC01142F7901693009F44AC07D
:100560006D3009F4A9C070F46A3009F465C06B30CD
:1005700009F0AEC04111B4C068E171E00E943F02D1
:1005800081E03EC06E3009F442C06F3009F0A0C077
:100590000E942E02F7010381000F000F000F6C89EB
:1005A000060F602F62956F706061CE010E949B0202
:1005B000602F6F70CE010E949B02F7016481606B17
:1005C000CE010E949B02F701408151816281660F3A
:1005D000660F660FCE010E9437021150A1F7CE01BF
:1005E0000E94250281E0DF91CF911F910F91FF9032
:1005F000EF90089582E591E0998388831C8A81E0D9
:10060000DF91CF911F910F91FF90EF9008950E947D
:100610002E0261E8CE010E949B02612FCE010E9452
:100620009202CE010E94250281E0DF91CF911F91BD
:100630000F91FF90EF900895EA85FB8530E020E070
:1006400040E068E20995EE81FF8130E020E040E083
:1006500064E1CE01099541E06BE4CE010E941E02E7
:10066000E881F981448169E2CE010E941E0240E0E6
:100670006BE4CE010E941E02E881F981448169E2A7
:10068000CE010E941E0241E06BE4CE010E941E02D8
:10069000E881F981458169E2CE010E941E026DE187
:1006A00071E0CE010E943F0281E0DF91CF911F9166
:1006B0000F91FF90EF900895411118C06CE071E028
:1006C0000E943F02E881F98182898C8B81E098CF7A
:1006D00080E0DF91CF911F910F91FF90EF900895EF
:1006E00063E171E00E943F0281E08ACF65E071E042
:1006F0000E943F02E881F98183898C8B81E080CF61
:10070000DC01ED91FC9145856DE20C941E02CF93C6
:10071000DF93EC01611116C040E06DE40E941E02FF
:10072000CE010E94800341E06CE4CE010E941E02D3
:10073000CE010E94800340E06CE4CE01DF91CF91B6
:100740000C941E0241E06DE40E941E02E9CF1F934B
:10075000CF93DF93EC01162F60780E948703612FFF
:100760006074CE010E948703612F6072CE010E94E7
:100770008703612F6071CE010E948703612F68702B
:10078000CE010E948703612F6470CE010E9487030F
:10079000612F6270CE010E948703612F6170CE01CC
:1007A0000E94870341E06DE4CE010E941E02CE014B
:1007B0000E94800341E06CE4CE010E941E02CE0143
:1007C0000E94800341E06DE4CE010E941E02CE0132
:1007D0000E94800340E06CE4CE01DF91CF911F9135
:1007E0000C941E02DC011896ED91FC9130E020E0A3
:1007F00040E069E10994DC011896ED91FC9130E04C
:1008000020E040E068E10994CF93DF931F92CDB7D9
:10081000DEB76983BE016F5F7F4F0E948E000F902D
:10082000DF91CF910895EF92FF921F93CF93DF93C3
:10083000EC01162F7A010E94FB0360E4CE010E94B6
:100840000404E885F9859701412F67E1CE010995F8
:10085000CE01DF91CF911F91FF90EF900C94F203A6
:10086000EF92FF920F931F93CF937C01C42F8901C6
:10087000663109F46DC098F0683141F008F44CC05D
:10088000693161F58091AD0181116CC01092AD01AB
:1008900081E0CF911F910F91FF90EF900895643107
:1008A00021F16531D9F48091AD01882319F0C70198
:1008B0000E94F203C7010E94FB0360E0C7010E948F
:1008C00004046C2FC7010E94040481E08093AD01F1
:1008D000CF911F910F91FF90EF90089580E0CF91FD
:1008E0001F910F91FF90EF900895DC0156968C9127
:1008F00056978F3F19F488E756968C93D701189630
:10090000ED91FC9198014C2F64E1C701CF911F91AB
:100910000F91FF90EF9009948091AD01882341F0F1
:1009200025C068E1C7010E941304C851085E1F4F2B
:10093000A801C931B0F76C2FC7010E9413041092AF
:10094000AD0181E0CF911F910F91FF90EF9008953D
:10095000642F0E94040481E0CF911F910F91FF90BA
:10096000EF900895C7010E94F20390CFC7010E9443
:10097000F203DECF0F931F93CF93DF93EC01A88197
:10098000B981FD01549131969491319684913196BB
:10099000E491451708F43FC0941708F43CC0451B88
:1009A000550B8E9FE02D1124E49FC001E59F900D13
:1009B0001124080F192F111D000F111F000F111FF7
:1009C000000F111FA8014C5F5F4FC901045F1F4F4B
:1009D00002C0A881B981FD01E40FF51FE491DC019B
:1009E000ED93CD014F5F5F4F4017510791F7FB012A
:1009F0008081882359F0F901285F3F4F8191DF0101
:100A0000119780958C932E173F07C1F7DF91CF91F7
:100A10001F910F910895F901C90108961192E817E5
:100A2000F907E1F7E4CFEF92FF920F931F93CF9373
:100A3000DF93EC018901683109F461C000F564318C
:100A400009F449C06731F9F4442389F04150E42E98
:100A5000F12C8FEFE81AF80AE20EF31EF80161910B
:100A60008F01CE010E94A703E016F106B9F781E0DD
:100A7000DF91CF911F910F91FF90EF900895693111
:100A800051F06032A1F380E0DF91CF911F910F917F
:100A9000FF90EF90089540E06DE40E941E02CE01A9
:100AA0000E94800341E06CE4CE010E941E02CE0150
:100AB0000E94800341E06DE4CE010E941E02CE013F
:100AC0000E9480031F8A81E0DF91CF911F910F91D7
:100AD000FF90EF90089541E06CE40E941E0241E017
:100AE0006DE4CE010E941E02CE010E94800381E0CF
:100AF000DF91CF911F910F91FF90EF9008958F8913
:100B0000882381F041E06DE4CE010E941E02CE01F7
:100B10000E94800341E06CE4CE010E941E02CE01DF
:100B20000E94800341E06DE4CE010E941E0240E07D
:100B30006DE4CE010E941E02CE010E94800340E0BF
:100B40006CE4CE010E941E0281E08F8B6E89CE0183
:100B50000E94A7038CCF0F931F93CF93DF93EC01D9
:100B6000E8EDE60FE632D0F080E0603490F06F738D
:100B7000FE01E60FF11D868D8F3F51F0603108F4C4
:100B8000D5C00E94180121E0892B09F420E0298FAB
:100B900081E0DF91CF911F910F910895F0E0ED5228
:100BA000FA4F0C94E00D07061A06C805C805B405EF
:100BB000F905B405B405B405B405B405B405B40528
:100BC000B405B405B405B405B405B405B405B4055D
:100BD000B405B405B405B405B405B405B405B4054D
:100BE000B405B405B405B405B405B405B40582066E
:100BF00082068FE090E0433010F083E090E00197B0
:100C0000F1F781E0DF91CF911F910F9108956E96DA
:100C100010E007C061E00E947C011F5F163109F4FB
:100C2000B7CF89918F3FC9F31031A0F362E00E94E2
:100C30007C01F3CF50E070E060E09FB7F894009142
:100C4000C8011091C9012091CA013091CB0186B52C
:100C5000A89B06C08F3F21F00F5F1F4F2F4F3F4FC4
:100C60009FBF322F212F102F0027080F111D211D8C
:100C7000311D000F111F221F331F000F111F221FD4
:100C8000331F411551056105710509F481CFFFB787
:100C9000F8948091C8019091C901A091CA01B091C6
:100CA000CB01E6B5A89B05C0EF3F19F00196A11D49
:100CB000B11DFFBFBA2FA92F982F88278E0F911D26
:100CC000A11DB11D880F991FAA1FBB1F880F991F57
:100CD000AA1FBB1F801B910BA20BB30B883E934036
:100CE000A105B105A0F241505109610971090851EE
:100CF0001C4F2F4F3F4F411551056105710539F6C6
:100D000081E047CF6F73C60FD11D8E8D411109C091
:100D100061E00E947C0160E08E8D0E94480181E0CC
:100D200038CF62E00E947C0181E033CF642F0E94C3
:100D3000480181E02ECF2F923F924F925F926F92A7
:100D40007F928F929F92AF92BF92CF92DF92EF925B
:100D5000FF920F931F93CF93DF93CDB7DEB76297C8
:100D60000FB6F894DEBF0FBECDBFDC015496ED91F7
:100D7000FC915597D9964C90D9979F012D5F3F4F85
:100D80006A3009F471C0329684918A8BD8969C910E
:100D9000D8979F875D0184E0A80EB11C8491F9016A
:100DA0002491292E280E240D288B3D01F4E16F0E8D
:100DB000711C4D0199E1890E911C9F859F5F291639
:100DC00008F44FC0898B362E6D011E86CE01019628
:100DD0007C015E841F85052D9701432DB401C3015D
:100DE0000E94BA041C874D8691E09B87FA86E986AB
:100DF000D6011896ED91FC919E01275F3F4F41E08F
:100E00006FE0C501099553941F5F121520F34394B9
:100E1000BE85E989BE0FBE87F8894F16D0F2D6018C
:100E2000D8968C91BA898B0FF60180AF81E090E063
:100E300062960FB6F894DEBF0FBECDBFDF91CF91A3
:100E40001F910F91FF90EF90DF90CF90BF90AF90E8
:100E50009F908F907F906F905F904F903F902F90DA
:100E60000895E1E0E98BAFCFF9012491420ED996C4
:100E70004C92D997D8961C92D9CFCF92DF92EF920D
:100E8000FF920F931F93CF93DF9341155105F9F014
:100E90008C01EB016B01C40ED51EF12CE12C699184
:100EA000D801ED91FC910190F081E02DC8010995E8
:100EB000E80EF91ECC15DD0591F7C701DF91CF9142
:100EC0001F910F91FF90EF90DF90CF900895F12C3C
:100ED000E12CF3CF089590E080E008951F93CF9325
:100EE000DF9385ED8093BC004091CF015091D001FC
:100EF0006091D1017091D201495F5F4F6F4F7F4F79
:100F000083E076956795579547958A95D1F70CC0FC
:100F10008091CF019091D001A091D101B091D201E7
:100F2000892B8A2B8B2B51F48091BC0084FDF0CF50
:100F300010921702DF91CF911F910895411551052D
:100F40006105710549F085E38A95F1F7000041508C
:100F5000510961097109E8CF8091CE01C1E0C093C8
:100F6000CD01882339F3D091B8001091BA00809157
:100F7000BC008A7B8093BC0060E082E10E94480153
:100F800060E083E10E94480110921702C0931902A9
:100F90001092180261E082E10E94480161E083E161
:100FA0000E9448018091B9008E7F8093B9008091A2
:100FB000B9008D7F8093B90088E48093B80085E400
:100FC0008093BC001093BA00D093B800B3CF1F92A7
:100FD0000F920FB60F9211242F933F934F935F936D
:100FE0006F937F938F939F93AF93BF93EF93FF93F1
:100FF000E091B900E87FE93C08F0E6C0F0E0ED5F81
:10100000F74F0C94E00D1E09E408E408E408E40836
:10101000E408E408E4085C09E408E408E408E408F7
:10102000E408E408E4085C09E408E408E408E408E7
:10103000E408E408E4086409E408E408E408E408CF
:10104000E408E408E4087B09E408E408E408E408A8
:10105000E408E408E4086409E408E408E408E408AF
:10106000E408E408E4089B09E408E408E408E40868
:10107000E408E408E408A109E408E408E408E40852
:10108000E408E408E4082F09E408E408E408E408B4
:10109000E408E408E4082009E408E408E408E408B3
:1010A000E408E408E4082309E408E408E408E408A0
:1010B000E408E408E408CC08E408E408E408E408E8
:1010C000E408E408E4083F09E408E408E408E40864
:1010D000E408E408E4083F09E408E408E408E40854
:1010E000E408E408E4083F09E408E408E408E40844
:1010F000E408E408E4083F09E408E408E408E40834
:10110000E408E408E4084809E408E408E408E4081A
:10111000E408E408E4081A09E408E408E408E40838
:10112000E408E408E4084809E408E408E408E408FA
:10113000E408E408E4081A09E408E408E408E40818
:10114000E408E408E4088109E408E408E408E408A1
:10115000E408E408E408F508E408E408E408E4081E
:10116000E408E408E408F508E408E408E408E4080E
:10117000E408E408E4080809E408E408E408E408EA
:10118000E408E408E4083909E408E408E408E408A9
:10119000E408E408E4083909E0913B0281E08E0F9D
:1011A00080933B028091BB00F0E0E65EFD4F8083C0
:1011B00080911902811144C081E08093180284EA71
:1011C0008093BC0010921702FF91EF91BF91AF91F5
:1011D0009F918F917F916F915F914F913F912F914F
:1011E0000F900FBE0F901F90189584E08093170208
:1011F0001092F4011092F301F0E0E0E00995809183
:10120000F301811105C081E08093F3011092D301B5
:10121000E091F40181E08E0F8093F401F0E0ED5253
:10122000FE4F80818093BB009091F4018091F30187
:101230009817D8F085E88093BC00C6CF10921602AC
:101240000E946E07C1CFE0913B0281E08E0F809338
:101250003B028091BB00F0E0E65EFD4F8083909101
:101260003B0280913A02981728F785EC8093BC00E6
:10127000ABCF85EC8093BC0010921702A5CF83E022
:10128000809317021092150285EC8093BC009CCFCE
:1012900080911502803270F6E091150281E08E0F88
:1012A000809315028091BB00F0E0EB50FE4F8083ED
:1012B00085EC8093BC0088CF80913C028093BB007A
:1012C00085EC8093BC0080CF90913B0280913A02E4
:1012D000981708F06DCFE0913B0281E08E0F80936C
:1012E0003B02F0E0E65EFD4F80818093BB0085EC21
:1012F0008093BC0069CF80E2809316020E946E0743
:1013000063CF85EC8093BC00109217028091150288
:10131000803230F4E0911502F0E0EB50FE4F108285
:101320006091150270E085EF91E0F0E0E0E0099552
:101330001092150249CF80E3809316020E946E0737
:1013400043CF88E38093160285EC8093BC00109213
:1013500017023ACF1F920F920FB60F9211242F93BC
:101360003F938F939F93AF93BF938091C4019091CC
:10137000C501A091C601B091C7013091C30123E01E
:10138000230F2D3768F126E8230F0296A11DB11D0A
:101390002093C3018093C4019093C501A093C6011B
:1013A000B093C7018091C8019091C901A091CA0171
:1013B000B091CB010196A11DB11D8093C8019093FE
:1013C000C901A093CA01B093CB01BF91AF919F9186
:1013D0008F913F912F910F900FBE0F901F901895F6
:1013E0000196A11DB11DD4CF1F920F920FB60F927F
:1013F00011242F933F934F935F936F937F938F931A
:101400009F93AF93BF93EF93FF93E0910301F0910C
:1014100004010995FF91EF91BF91AF919F918F9139
:101420007F916F915F914F913F912F910F900FBEE0
:101430000F901F9018951F920F920FB60F921124C4
:101440002F933F934F935F936F937F938F939F93CC
:10145000AF93BF93EF93FF93E0910101F0910201ED
:101460000995FF91EF91BF91AF919F918F917F91DE
:101470006F915F914F913F912F910F900FBE0F9001
:101480001F9018951F920F920FB60F9211242F9351
:101490003F934F935F936F937F938F939F93AF93FC
:1014A000BF93EF93FF93F89480918100887F80939E
:1014B0008100109285001092840087E00E9418013C
:1014C00061E0892B09F060E087E00E94480180918B
:1014D000B6018823C1F061E088E00E9448018BEDED
:1014E0009EE20197F1F760E088E00E94480161E028
:1014F0008DE00E94480183EC90E00197F1F760E0F5
:101500008DE00E9448017894FF91EF91BF91AF91D7
:101510009F918F917F916F915F914F913F912F910B
:101520000F900FBE0F901F901895CF93109240020E
:1015300010923F0210927502109276028EE691E0B0
:1015400090933E0280933D0210924202109241021B
:10155000109256021092590210924D0210924E02B1
:1015600010924F02109250028FEF80935702809397
:101570005B02EFE5F2E085E792E0CFEFC1938E17D3
:101580009F07E1F784EA92E0909346028093450238
:1015900080E394E0909348028093470283E195E0D2
:1015A00090934A02809349028BEA95E090934C0213
:1015B00080934B0230E020E040E069E081E492E07B
:1015C0000E94A40283E180936B0282E180936C020B
:1015D000C0936A02CF910895789484B5826084BDE7
:1015E00084B5816084BD85B5826085BD85B5816027
:1015F00085BD80916E00816080936E0010928100A5
:10160000809181008260809381008091810081605F
:101610008093810080918000816080938000809120
:10162000B10084608093B1008091B00081608093AC
:10163000B00080917A00846080937A0080917A0073
:10164000826080937A0080917A00816080937A0032
:1016500080917A00806880937A001092C10061E0E6
:1016600088E00E947C0161E087E00E947C0161E0EB
:101670008DE00E947C0183ED91E0909304018093C2
:10168000030180916900837F886080936900E99AF3
:10169000F89410928000109281008091B70190918F
:1016A000B801A091B901B091BA01909389008093DB
:1016B00088008091810088608093810083E080931E
:1016C000810080916F00826080936F00789480E049
:1016D000A82E80E0B82E9AEE892E99249A9433246D
:1016E00033940BEE1FEF36C01092B6011092BC017E
:1016F0001092BB016091BF017091C0018091C10146
:101700009091C20120E030E040EB51EC0E94890F43
:101710000E94C50E6093B2017093B3018093B4012F
:101720009093B5013092B6019092BC018092BB01BA
:101730000E94AD0164197509860997096093AE018D
:101740007093AF018093B0019093B101A114B104E3
:1017500009F000C10E94AD012B013C016091BF0165
:101760007091C0018091C1019091C20120E030E0F0
:1017700044EB53E40E94890F9B01AC0160EC71EED5
:1017800084E69CE40E94530E0E94C50E7093BE0135
:101790006093BD016091BB017091BC01C090BF011D
:1017A000D090C001E090C101F090C2016C547F4F15
:1017B000072E000C880B990B0E94FD0EA7019601C5
:1017C0000E94890F20E030E84BE355E40E94E60DCB
:1017D00020E030E040E85EE30E94890F0E94CC0EDA
:1017E0006093B7017093B8018093B9019093BA01E7
:1017F0008091B7019091B801A091B901B091BA015F
:101800009093890080938800C091BD01D091BE0162
:10181000C238D1050CF468CFCE3E82E0D807FCF484
:101820006091BF017091C0018091C1019091C2018E
:1018300020E030E040E05FEB0E94890F0E94C50E7F
:101840006093B2017093B3018093B4019093B5019A
:101850003092B6011092BC011092BB014BCFC93E31
:1018600093E0D9070CF09AC06091BF017091C0015C
:101870008091C1019091C20120E030E040EE50EC37
:101880000E94890F0E94C50E6093B2017093B3014C
:101890008093B4019093B5013092B60189EF9FEF28
:1018A0009093BC018093BB01C83B9BE0D9070CF42B
:1018B00021CFC03A8FE0D80774F1C83893E1D90737
:1018C0000CF44BC0C03797E1D9070CF48DC0C83574
:1018D0009BE1D9070CF4CFC0C0349FE1D9070CF4C9
:1018E000EBC0C83293E2D9070CF407C1C03197E2CC
:1018F000D9070CF423C1C8339AE4D9070CF43FC1CB
:10190000C032DE440CF014CF8CE390E09093BC0125
:101910008093BB010DCF6091BF017091C001809198
:10192000C1019091C20120E030E048EA51EC0E94F0
:10193000890F0E94C50E6093B2017093B30180932A
:10194000B4019093B5013092B6011093BC0100939D
:10195000BB01EECE0E940000C2CE6091BF0170912B
:10196000C0018091C1019091C20120E030E040EAC5
:1019700051EC0E94890F0E94C50E6093B2017093D2
:10198000B3018093B4019093B5013092B6018CEE0F
:101990009FEF9093BC018093BB01CACECC3D95E0F4
:1019A000D9070CF042C06091BF017091C0018091D5
:1019B000C1019091C20120E030E040E751EC0E946B
:1019C000890F0E94C50E6093B2017093B30180939A
:1019D000B4019093B5013092B60181EF9FEF9093DF
:1019E000BC018093BB0160CF6091BF017091C001C9
:1019F0008091C1019091C20120E030E04CE851ECAF
:101A00000E94890F0E94C50E6093B2017093B301CA
:101A10008093B4019093B5013092B6018FEE9FEFA1
:101A20009093BC018093BB0183CEC03D97E0D90762
:101A30000CF03ACF6091BF017091C0018091C1015B
:101A40009091C20120E030E040EA51EC0E94890F01
:101A50000E94C50E6093B2017093B3018093B401EC
:101A60009093B5013092B6018CEE9FEF9093BC013C
:101A70008093BB0119CF6091BF017091C00180912B
:101A8000C1019091C20120E030E040E651EC0E949B
:101A9000890F0E94C50E6093B2017093B3018093C9
:101AA000B4019093B5013092B60182EF9FEF90930D
:101AB000BC018093BB013CCE6091BF017091C0011D
:101AC0008091C1019091C20120E030E040E351ECEF
:101AD0000E94890F0E94C50E6093B2017093B301FA
:101AE0008093B4019093B5013092B60185EF9FEFDA
:101AF0009093BC018093BB011BCE6091BF0170919C
:101B0000C0018091C1019091C20120E030E040E02D
:101B100051EC0E94890F0E94C50E6093B201709330
:101B2000B3018093B4019093B5013092B60188EF70
:101B30009FEF9093BC018093BB01FACD6091BF01F0
:101B40007091C0018091C1019091C20120E030E00C
:101B500040EE50EC0E94890F0E94C50E6093B201C6
:101B60007093B3018093B4019093B5013092B601A4
:101B700089EF9FEF9093BC018093BB01D9CD609119
:101B8000BF017091C0018091C1019091C20120E01C
:101B900030E040E252E40E94890F0E94C50E60933B
:101BA000B2017093B3018093B4019093B501309268
:101BB000B60188E290E09093BC018093BB01B8CD60
:101BC000EE0FFF1F0590F491E02D09945058BB27AC
:101BD000AA270E94FE0D0C944F0F0E94410F38F06F
:101BE0000E94480F20F039F49F3F19F426F40C941A
:101BF0003E0F0EF4E095E7FB0C94380FE92F0E949E
:101C0000600F58F3BA17620773078407950720F02F
:101C100079F4A6F50C94820F0EF4E0950B2EBA2FF2
:101C2000A02D0B01B90190010C01CA01A0011124E2
:101C3000FF27591B99F0593F50F4503E68F11A168E
:101C4000F040A22F232F342F4427585FF3CF46951F
:101C500037952795A795F0405395C9F77EF41F1641
:101C6000BA0B620B730B840BBAF09150A1F0FF0F0B
:101C7000BB1F661F771F881FC2F70EC0BA0F621FF7
:101C8000731F841F48F4879577956795B795F795E7
:101C90009E3F08F0B0CF9395880F08F09927EE0F7C
:101CA0009795879508950E94670E0C944F0F0E9498
:101CB000480F58F00E94410F40F029F45F3F29F08F
:101CC0000C94380F51110C94830F0C943E0F0E940A
:101CD000600F68F39923B1F3552391F3951B550BCE
:101CE000BB27AA2762177307840738F09F5F5F4FEF
:101CF000220F331F441FAA1FA9F335D00E2E3AF02E
:101D0000E0E832D091505040E695001CCAF72BD045
:101D1000FE2F29D0660F771F881FBB1F2617370796
:101D20004807AB07B0E809F0BB0B802DBF01FF27C8
:101D300093585F4F3AF09E3F510578F00C94380F5E
:101D40000C94830F5F3FE4F3983ED4F38695779528
:101D50006795B795F7959F5FC9F7880F911D969581
:101D6000879597F90895E1E0660F771F881FBB1FDD
:101D7000621773078407BA0720F0621B730B840B8A
:101D8000BA0BEE1F88F7E09508950E94CC0E689478
:101D9000B1110C94830F08950E94680F88F09F572B
:101DA00098F0B92F9927B751B0F0E1F0660F771F7F
:101DB000881F991F1AF0BA95C9F714C0B13091F075
:101DC0000E94820FB1E008950C94820F672F782F44
:101DD0008827B85F39F0B93FCCF38695779567953A
:101DE000B395D9F73EF490958095709561957F4FA6
:101DF0008F4F9F4F0895E89409C097FB3EF490954C
:101E00008095709561957F4F8F4F9F4F9923A9F0D3
:101E1000F92F96E9BB279395F69587957795679562
:101E2000B795F111F8CFFAF4BB0F11F460FF1BC0A6
:101E30006F5F7F4F8F4F9F4F16C0882311F096E939
:101E400011C0772321F09EE8872F762F05C06623E7
:101E500071F096E8862F70E060E02AF09A95660FA0
:101E6000771F881FDAF7880F9695879597F9089559
:101E700097F99F6780E870E060E008959FEF80EC3D
:101E8000089500240A9416161706180609060895E0
:101E900000240A9412161306140605060895092E46
:101EA0000394000C11F4882352F0BB0F40F4BF2BB5
:101EB00011F460FF04C06F5F7F4F8F4F9F4F0895F5
:101EC00057FD9058440F551F59F05F3F71F04795EB
:101ED000880F97FB991F61F09F3F79F087950895D0
:101EE000121613061406551FF2CF4695F1DF08C0EF
:101EF000161617061806991FF1CF8695710561050C
:101F000008940895E894BB2766277727CB0197F9B3
:101F100008950E949C0F0C944F0F0E94410F38F0BF
:101F20000E94480F20F0952311F00C94380F0C9468
:101F30003E0F11240C94830F0E94600F70F3959F45
:101F4000C1F3950F50E0551F629FF001729FBB27B0
:101F5000F00DB11D639FAA27F00DB11DAA1F649F4C
:101F60006627B00DA11D661F829F2227B00DA11DFF
:101F7000621F739FB00DA11D621F839FA00D611D85
:101F8000221F749F3327A00D611D231F849F600DA6
:101F9000211D822F762F6A2F11249F5750409AF0CF
:101FA000F1F088234AF0EE0FFF1FBB1F661F771F5B
:101FB000881F91505040A9F79E3F510580F00C9426
:101FC000380F0C94830F5F3FE4F3983ED4F386956B
:101FD00077956795B795F795E7959F5FC1F7FE2BC6
:101FE000880F911D9695879597F90895F894FFCFDE
:101FF000011D021D021815A015C019FF1815A11505
:10200000C819FF1815AE19FF1815AF19FF1815AE2E
:1020100015D5168015A8161F15D316001540158D59
:1020200016141520160015A115C815DA160215810B
:10203000168F15D916F115DB1640152E15A415A609
:1020400019FF0001140A6464323200127A0000049D
:1020500028961004000080002000000000009B066D
:062060003D076B076A0753
:00000001FF
